:020000040800F2
:1000000020CD00202D0200089F61000885210008F6
:100010009D610008750D0008359F00080000000074
:1000200000000000000000000000000067870008DA
:100030000313000800000000216D00087B89000800
:10004000470200084702000847020008470200086C
:10005000470200084702000805130008470200088D
:100060003D13000875130008AD130008470200088F
:10007000470200084702000847020008470200083C
:10008000470200084702000847020008470200082C
:100090004702000847020008470200082914000828
:1000A000470200084702000847020008470200080C
:1000B00047020008B58A0008E98A000847020008DC
:1000C00047020008470200084702000847020008EC
:1000D00047020008999D00084702000847020008EF
:1000E00047020008470200084702000847020008CC
:1000F00047020008470200084702000847020008BC
:100100004702000811720008A58B0008470200088A
:1001100047020008470200082D8C0008470200082B
:10012000470200084702000847020008470200088B
:1001300000F002F800F06BF80AA090E8000C82448E
:100140008344AAF10107DA4501D100F060F8AFF26B
:10015000090EBAE80F0013F0010F18BFFB1A43F0A5
:1001600001031847A43C0100C43C01000A444FF0BD
:10017000000C10F8013B13F0070408BF10F8014B06
:100180001D1108BF10F8015B641E05D010F8016B4B
:10019000641E01F8016BF9D113F0080F1EBF10F8AF
:1001A000014BAD1C0C1B09D16D1E58BF01F801CBD2
:1001B000FAD505E014F8016B01F8016B6D1EF9D555
:1001C0009142D6D37047000000230024002500266A
:1001D000103A28BF78C1FBD8520728BF30C148BFAA
:1001E0000B607047642900F0D580752900F0D2803B
:1001F000782900F00B81632900F0B583732900F0A2
:10020000BA83002070471FB51FBD10B510BD00F0A8
:1002100007FC1146FFF7F7FF0DF044F800F025FC4E
:1002200003B4FFF7F2FF03BC09F0F1FF0948804770
:1002300009480047FEE7FEE7FEE7FEE7FEE7FEE7C8
:10024000FEE7FEE7FEE7FEE704480549034A054BE3
:10025000704700007D8900083101000820C9002096
:1002600020CD002020C90020704710B54C1084EA32
:10027000530404D54042C1F1000138BF491E1B425E
:1002800004D55242C3F1000338BF5B1E00F068FA88
:1002900014F0804F04D04042C1F1000138BF491E24
:1002A00014F0004F04D05242C3F1000338BF5B1E6C
:1002B00010BD00000FB4044910B503AA029800F065
:1002C0005FFB10BC5DF814FBC80000200FB41CB528
:1002D000074B06AA7B4469460090059800F021FB75
:1002E0000020694600F030FB1CBC5DF814FB0000E8
:1002F0007106000070B5044685690068C10601D525
:10030000302600E02026C00707D070BDD4E90121C7
:1003100030469047206A401C20626D1EF6D570BDA5
:1003200070B5044685690078C00707D170BDD4E96F
:10033000012120209047206A401C20626D1EF6D5C6
:1003400070BD70B50C460546012A05D02878800698
:1003500000D5EA69002302E0012305E05B1C93421B
:1003600002D2E05C0028F9D1A869E618C01AA86199
:10037000286A184428622846FFF7BCFF04E0D5E944
:10038000012114F8010B9047B442F8D32846FFF737
:10039000C7FF70BD2DE9F04106460024106875299D
:1003A000314616A510D0AFF30080002802DA404293
:1003B00013A507E031688A0701D512A502E04907B5
:1003C00004D511A5012401E0AFF3008000210A2229
:1003D00006F1240709E0B0FBF2FCB0FBF2F302FBEC
:1003E0001C00303078541846491C0028F3D12346AD
:1003F0002A463046BDE8F04100F034BA0000000063
:100400002D0000002B0000002000000070B5044605
:100410000D4621461068AFF300802188090502D5FA
:100420000F4A7A4402E00E4A7A440E32002104F167
:10043000240305E000F00F060009965D5E54491C98
:100440000028F7D120780023000704D5702D02D0B2
:1004500009B1022311322046BDE8704000F002BA13
:10046000563701002DE9F05F894604464FF0000A37
:10047000DFF874B1FB44C0F820A02046E16888474B
:10048000002874D0252806D0D4E901219047206A9D
:10049000401C2062F1E700265F462046E16888475D
:1004A0002028054607DB312D05D2781910F8200CDD
:1004B00008B10643F1E7B00701D526F00406C4F8F9
:1004C0001CA00027C4F818A02A2D09D0284609F03E
:1004D00097FE38B304EB8708303DC8F8185019E090
:1004E00059F8041B204604EB87029161E1688847B4
:1004F000012F054618D1E069002820DA26F02006F1
:100500001DE0D8F8180000EB800005EB4000303803
:10051000C8F818002046E1688847054609F070FED3
:100520000028EED1012F0AD02E2D08D12046E168F7
:1005300088477F1C0546022F46F02006C4DBA069D1
:10054000002803DA404246F00106A061F00701D01E
:1005500026F010066C2D0BD0682D09D04C2D39D00B
:100560006A2D35D0742D35D07A2D33D016E038E091
:10057000E1682F4620468847B842054609D16C2FCE
:1005800026D04FF48060E168064320468847054640
:1005900004E06C2F1AD04FF4807006430DB3A5F120
:1005A0004100192802D8203546F400664A462946FB
:1005B000204626604E46FFF715FE80B101280BD07D
:1005C000F61D26F0070000F1080956E74020E4E791
:1005D0008020D8E70020D6E706F104094DE7284639
:1005E00052E7206ABDE8F09F2C37010040EA010382
:1005F000024630B59B0710D14FF0013400E008C22D
:1006000008C91D1B9D4315EAC41FF8D013F0FF0154
:1006100002F8011B0DD01B0AF8E711F8013B002B73
:1006200002F8013B05D011F8013B002B02F8013B19
:10063000F3D130BD421E12F8013F002BFBD111F85F
:10064000013B002B02F8013BF9D17047032A40F22D
:10065000308010F0030C00F0158011F8013BBCF164
:10066000020F624498BF11F801CB00F8013B38BF7C
:1006700011F8013BA2F1040298BF00F801CB38BF8A
:1006800000F8013B11F0030300F08C81083AC0F040
:10069000088051F8043B083A51F804CBA0E8081050
:1006A000F5E7121D5CBF51F8043B40F8043BAFF383
:1006B0000080D20724BF11F8013B11F801CB48BFDD
:1006C00011F8012B24BF00F8013B00F801CB48BF13
:1006D00000F8012B704700004FF0013C50F8042B4C
:1006E00051F8043B9A4221D1A2EB0C03934313EA45
:1006F000CC1317D150F8042B51F8043B9A4215D172
:10070000A2EB0C03934313EACC130BD150F8042B48
:1007100051F8043B9A4209D1A2EB0C03934313EA2C
:10072000CC13DBD04FF00000704700BFD01A01BAE5
:10073000B1FA81F101F0180122FA01F0CB40C1F1C8
:100740002001DBB2C0B2C01A2CFA01F3D11A9143D6
:1007500011EAC311E6D17047704770477047704780
:1007600053EA020C00F069802DE9F04B4FF00006CF
:10077000002B1FBFB3FA83F503FA05F424FA05F63C
:100780005E4012BF1643B2FA82F502FA05F4C5F1D3
:1007900020051EBF22FA05FC44EA0C04203556EA67
:1007A000044C4FEA144418BF641C4FF000084FF08B
:1007B0000009904271EB030C39D3002919BFB1FA3B
:1007C00081F701FA07F6B0FA80F700FA07F6C7F1E9
:1007D00020071EBF20FA07FC46EA0C062037B6FBAE
:1007E000F4FCA7EB0507103F07F01F0BCBF1200629
:1007F0000CFA0BFB2CFA06F644BFB3460026202F5A
:10080000A4BF5E464FF0000B5BEA060C08BF4FF03A
:10081000010B19EB0B09ABFB027C48EB0608C01B74
:1008200006FB02CC0BFB03CC71EB0C01C1E70B46C2
:10083000024641464846BDE8F08B13B54FF0000034
:100840004FF00001AFF30080BDE81C40704710B5C9
:1008500000F0DAF8006810BD10B5044600F0D4F8D6
:10086000046010BD2DE9F0470D46994692460446B6
:1008700000F124080168880604D5E06921F0100120
:10088000216000E00120A84201DD471B00E00027B5
:10089000A1697A1902EB0900081AA0612078C00644
:1008A00002D42046FFF726FD002608E0D4E9012106
:1008B0001AF806009047206A401C761C20624E45BC
:1008C000F4DB2078C0060AD52046FFF713FD06E0CA
:1008D000D4E9012130209047206A401C2062381E54
:1008E000A7F10107F4DC07E0D4E9012118F80500BD
:1008F0009047206A401C2062281EA5F10105F3DC08
:100900002046FFF70DFD2078000602D50220BDE845
:10091000F0870120FBE7000001694A1C02610878AA
:10092000704700B58FB0CDE901310021059105492F
:100930007944CDE9031011466846FFF793FD0FB0E7
:1009400000BD0000E5FFFFFF0A6802F8010B0A6026
:10095000704710B5436913B1AFF3008001E0FFF7B2
:10096000F0FC012010BD127800F124010A70002271
:100970004A700122EDE711684FF0FF32E9E700000D
:10098000074B70B50D467B44FFF7CBFF0446284666
:1009900000F03EF810B14FF0FF3070BD204670BD42
:1009A00087B2000010B5203AC0F00B80B1E81850B3
:1009B000203AA0E81850B1E81850A0E81850BFF449
:1009C000F5AF5FEA027C24BFB1E81850A0E81850E8
:1009D00044BF18C918C0BDE810405FEA827C24BF3C
:1009E00051F8043B40F8043B08BF7047D20728BFCA
:1009F00031F8023B48BF11F8012B28BF20F8023B19
:100A000048BF00F8012B704700487047C0C800205D
:100A1000007B00F08000704700487047C0C800208D
:100A20007546FFF7F9FFAE4605006946534620F0CC
:100A30000700854618B020B5FFF706FCBDE820404A
:100A40004FF000064FF000074FF000084FF0000B8A
:100A500021F00701AC46ACE8C009ACE8C009ACE83D
:100A6000C009ACE8C0098D4670470446AFF300806A
:100A70002046FFF7D5FB0029816802D041F0010133
:100A800001E021F001018160704700000D4910B5BF
:100A9000884202D1012144150AE00B49884202D163
:100AA0000121041504E0094988420AD10121CC033F
:100AB000204606F065F92046BDE81040002106F00A
:100AC0005FB910BD0024014000280140003C0140F6
:100AD000014600208968490700D501207047C06C95
:100AE00080B270470246002012680A4200D00120FE
:100AF0007047014600208968090700D5012070472A
:100B000010B542680E4B0C791A400B6842EA042279
:100B10001343436082680B4B1A40D1E902432343DD
:100B20004C7942EA440213438360C26A097C22F48E
:100B30007002491EC9B242EA0151C16210BD0000F3
:100B4000FFFEF0FFFDF7F1FF70B5072609290AD96E
:100B5000C568A1F10A0404EB4404A640B543A340D0
:100B60001D43C56007E0056901EB4104A640B5439C
:100B7000A3401D4305611F23072A09D2446B521E5F
:100B800002EB820293409C4391400C43446370BD4E
:100B90000D2A09D2046BD21F02EB820293409C43C0
:100BA00091400C43046370BDC46A0D3A02EB8202AB
:100BB00093409C4391400C43C46270BD816841F0F6
:100BC0000801816070470029816802D041F4A001CA
:100BD00001E021F4A00181607047816841F00401C7
:100BE0008160704705490028086802D040F4000081
:100BF00001E020F400000860704700000824014074
:100C000001F0E2BA70B515460E46044608E02046EB
:100C1000641CA4B200F007F86D1E06F8010BADB21B
:100C2000002DF4D170BD10B5044601F071FB200A0F
:100C3000A02101EB4000C0B201F036FB01F0AAFB9D
:100C4000E0B201F031FB01F0A5FB01F061FBA12056
:100C500001F02AFB01F09EFB002001F0EFFA0446B0
:100C600001F076FB204610BD70B514460D460646D1
:100C700006E02978304600F007F8761CB6B26D1C05
:100C8000641EA4B2F5D270BD70B50D46044601F0E5
:100C90003FFB200AA02101EB4000C0B201F004FBA1
:100CA00001F078FBE0B201F0FFFA01F073FB284697
:100CB00001F0FAFA01F06EFB01F04AFBBDE870406A
:100CC0000A2009F0D3BE000010B50121CC0386B084
:100CD000204606F049F80121204606F051F800218F
:100CE000204606F04DF8154C2046FFF7CFFE0021B8
:100CF0004FF46020CDE902018DF80410012000912D
:100D00008DF805108DF8100069462046FFF7F8FEB3
:100D100001212046FFF7AFFE2046FFF74FFF204698
:100D2000FFF7E7FE0028FAD12046FFF756FF2046DE
:100D3000FFF7CEFE0028FAD106B010BD003C0140FE
:100D40000948816941F0080181610848016821F082
:100D50000F010160016841F00301016004490020B6
:100D6000C1F8A0017047000000100240040C0140CF
:100D700000802142FEE7000070B50F4C0025C4F84A
:100D800084510E48016821F0F0010160016841F0D2
:100D900030010160052004F5C27409F081FE0848A5
:100DA000C0F8A451052009F07BFE01202060052039
:100DB00009F076FE256070BD00802142041C0140D0
:100DC0000080234238B50121882005F0CDFF0220A4
:100DD000ADF8000010208DF8030003200B4C8DF8B7
:100DE00002006946204600F0E1FE0221204600F0A4
:100DF00060FF074D6415ADF800406946284600F0D5
:100E0000D5FE2146284600F054FF38BD000C0140B5
:100E1000001C014070B50F4C0026C4F884610E48D8
:100E2000016821F0F0010160016841F030010160CA
:100E3000052004F5C27409F033FE08480125C0F806
:100E4000A451052009F02CFE2560052009F028FE9C
:100E5000266070BD00802142041C014000802342B6
:100E60002DE9F047824618480024016821F0F0017E
:100E70000160016841F0800101601E2009F010FE50
:100E80000025124EDFF848902F464FF00108C6F8B3
:100E90008471052009F004FEC6F884816006040E02
:100EA000D9F8240108B1641CE4B26D1CEDB2082D20
:100EB000EDD3BAF1000F04D0FFF75EFF2046BDE886
:100EC000F087FFF7A7FFF9E7041C014000802142EB
:100ED000008023422DE9F04705461548016821F0BE
:100EE000F0010160016841F030010160114E0027FE
:100EF000C6F88471052009F0D3FDDFF83C8000249A
:100F00004FF00109E909C8F8A4116806050EC6F8F2
:100F10008491052009F0C4FDC6F88471052009F00C
:100F2000BFFD641CE4B2082CECD3BDE8F0870000E0
:100F3000041C0140008021420080234270B50F480C
:100F4000016821F0F0010160016841F030010160A9
:100F50000B4E0120C6F8A4010A4DC5F884011E20DD
:100F600005F5C27506F5D27609F09AFD00243460C5
:100F7000052009F095FD2C6070BD0000041C0140A7
:100F8000008023420080214270B50D48016821F0A5
:100F9000F0010160016841F030010160094801255C
:100FA000C0F884511E2009F07BFD074C0020C4F8D6
:100FB000A401052004F5D27409F072FD256070BD0E
:100FC000041C0140008021420080234270B5124879
:100FD0000024016821F0F0010160016841F0800106
:100FE00001600E4D0120C5F8A4010D4EC6F8840124
:100FF00007E0641CE4B2FA2C03D9FFF7C5FF012017
:1010000070BD052009F04CFDD5F824010028F0D171
:10101000C6F8840170BD0000041C0140008023421A
:101020000080214270B500254FF4803405E0802017
:1010300006F0DCF808B144B101E0641EF7D240F2DA
:10104000FF5006F08FF8284670BD032070BD0000E9
:1010500070B5124C0546616B11F0450FFBD00420B2
:1010600006F0C4F820B1042006F07CF8032070BD1F
:10107000012006F0BBF820B1012006F073F8012032
:1010800070BD2069A84201D0102070BD40F2FF5011
:10109000A063606900F0080070BD0000008001409E
:1010A00010B500244FF480310E4809E0426B12F075
:1010B000450F05D009B1500705D5032404200CE0E5
:1010C000491EF3D2F7E7012006F090F818B1012489
:1010D000204606F047F840F2FF5006F043F820465D
:1010E00010BD00000080014010B50A49486B10F0A7
:1010F000450FFBD0042006F079F820B1042006F05B
:1011000031F8032010BD40F2FF5006F02BF800200C
:1011100010BD0000008001402DE9F0411B4C0E463F
:1011200007460025606B10F0450FFBD0042006F049
:101130005DF828B1042006F015F80320BDE8F08121
:10114000012006F053F820B1012006F00BF8012031
:10115000F4E72069B84210D140F2FF5006F002F8DF
:10116000626912F4604F03D0900404D51320E5E7C0
:10117000100C308007E0500401D51020DEE7100489
:1011800001D50F20DAE72846D8E7000000800140AB
:1011900010B500244FF480320B4809E0416B11F088
:1011A000450F05D00AB1480705D50324042006E001
:1011B000521EF3D2F7E7480603D50024402005F07D
:1011C000D1FF204610BD00000080014000290168C9
:1011D00002D041F0010102E04FF6FE7211400160C1
:1011E0007047000001684FF6FE7211400160002157
:1011F000016041608160C1603149314A08399042E3
:1012000003D1486840F00F0006E02D4A14329042A6
:1012100004D1486840F0F00048607047284A2832FE
:10122000904203D1486840F47060F5E7244A3C32AC
:10123000904203D1486840F47040EDE7204A5032B4
:10124000904203D1486840F47020E5E71C4A6432BC
:10125000904203D1486840F47000DDE7184A7832C4
:10126000904203D1486840F07060D5E7154A111FDD
:10127000904203D1086840F00F0006E0114A143292
:10128000904204D1086840F0F000086070470D4AB1
:101290002832904203D1086840F47060F5E7094AAB
:1012A0003C32904203D1086840F47040EDE7054AB3
:1012B00050329042EAD1086840F47020E5E700001F
:1012C000080002400804024030B5026847F6F07397
:1012D0009A430C6A8B682343D1E904452C4323438A
:1012E0008C692343CC6923434C6A23438C6A234390
:1012F00013430360CA6842600A6882604968C1603B
:1013000030BD704710B50A2009F0B0FB0121094833
:1013100000F0C6FC012806D10749D1F8A00138B178
:101320000020C1F8A001BDE81040012000F0A0B8E5
:101330000120F6E7000801400080214210B50A2094
:1013400009F094FB0421094800F0AAFC30B90849CF
:10135000D1F8940138B10020C1F89401BDE81040E3
:10136000042000F085B80120F6E7000000180140D5
:101370000080214210B50A2009F078FB08210948B5
:1013800000F08EFC30B90849D1F8940138B1002042
:10139000C1F89401BDE81040082000F069B80120B0
:1013A000F6E70000001801400000234210B50A20B3
:1013B00009F05CFB1021094800F072FC30B90849C3
:1013C000D1F8940138B10020C1F89401BDE8104073
:1013D000102000F04DB80120F6E700000018014091
:1013E000008021423EB50821002000F0CBFB4FF4E5
:1013F0008070002400908DF8044008208DF80500CE
:1014000001258DF80650684600F048F817208DF841
:1014100008008DF809408DF80A408DF80B5002A89D
:1014200004F0BEFE3EBD000010B54FF480742046AF
:1014300000F024F8012806D10A4B0B4A0021187845
:1014400030B1C2F88C112046BDE8104000F010B851
:101450000648C0F898110121C0F89811C2F88C1103
:101460001970F0E76A0000200080214200802242CB
:10147000014908607047000014040140064A014613
:1014800000201268044B0A4014331B680B4202D040
:10149000002A00D0012070470004014030B51A4AEC
:1014A0008379016853B313688B431360111D0B6874
:1014B0000468A3430B60017911440B68046823435B
:1014C0000B60114B083319680468A14319601C1D97
:1014D00021680568A94321604179102905D011448C
:1014E0000A68006802430A6030BD19680268114347
:1014F0001960216800680143216030BD0079104403
:1015000002688A43026030BD0004014070B50546A0
:101510004FF43026304600F059F8042811D1094C18
:10152000206940F0020020616561206940F04000C0
:101530002061304600F04AF8216941F6FD72114001
:10154000216170BD0020024008490420CA68D2070A
:1015500001D001207047CA68520701D502207047A8
:10156000C968C906FBD5032070470000002002406F
:101570000248016941F0800101617047002002408A
:10158000F0B506464FF400570D46384600F01EF8F9
:1015900004280CD1064C206940F001002061358000
:1015A000384600F013F82169BA1E11402161F0BDE0
:1015B00000200240034802494160034941607047EE
:1015C0002301674500200240AB89EFCD00B50346FB
:1015D000FFF7BAFF02E0FFF7B7FF5B1E012803D059
:1015E000002B00D1052000BD002BF4D1FAE700004C
:1015F0008000A0F1C0400029016802D041F0010143
:1016000001E0024A1140016070470000FEFF0F0038
:1016100010B5D0E901121143D0E903231A43114355
:101620004269114382691143C2691143026A11433D
:10163000426A1143826A1143C26A1143026B114329
:1016400002689200A2F1C04211608168082907D1A6
:1016500001688900A1F1C0410A6842F040020A60B5
:10166000416BD1E9002342EA03128B688C891B028B
:1016700043EA04431A430B8A42EA03520B7D896909
:1016800042EA03620A4301688900A1F1C0414A604D
:10169000C16AB1F5804F08D000686FF070418000DA
:1016A000A0F1C040C0F8041110BD816BD1E9002346
:1016B00042EA03128B680C8A1B0243EA04531A4362
:1016C0000B7D896942EA036200680A438000A0F149
:1016D000C040C0F8042110BD10B598B001214FF4EE
:1016E000F07005F041FB0121080205F025FB4FF6E3
:1016F0003370ADF8580018208DF85B0003248DF886
:101700005A4016A91F4800F051FA4FF68370ADF801
:10171000580016A91C4800F049FA4FF23F00ADF8F6
:10172000580016A9194800F041FA40F23F40ADF8C0
:10173000580016A9164800F039FA0020CDE9100427
:101740000F90149004211590CDE9001012901021F3
:10175000CDE90201139004900690059009020790CC
:10176000CDE908010A900B900C900FA80D900E90F7
:101770006846FFF74DFF01210420FFF739FF18B03D
:1017800010BD00000014014000180140001C014081
:10179000002001407CB50121802005F0E5FA4FF4DE
:1017A0000060ADF8040010208DF8070003202D4DD7
:1017B0008DF8060001A9284600F0F8F90221284614
:1017C00000F077FA2C15ADF8044048228DF8072078
:1017D00001A9284600F0EAF92146284600F069FAF6
:1017E000FFF7F0FA204D0024C5F8AC41142005F5B0
:1017F000D67509F03BF901202860322009F036F94E
:101800008DF8004001226946002000F0FBF801221B
:101810006946A42000F0F6F816208DF80000012299
:101820006946802000F0EEF80C208DF800000122BF
:101830006946882000F0E6F802226946A12000F0FF
:101840001BF89DF80000302803D19DF80100032803
:1018500001D001207CBD43F2030104A0FEF72AFD64
:1018600000207CBD001C01400080234243545020D6
:1018700049443A25780D0A002DE9F04115460F46F6
:101880000446FFF75BFB7020FFF724FBFFF79EFB8E
:10189000E0B2FFF71FFBFFF799FBFFF74FFB71204B
:1018A000FFF718FBFFF792FB00246E1E09E0B4421D
:1018B00001D0012000E00020FFF7D2FA3855641C67
:1018C000E4B2AC42F3D3BDE8F041FFF75DBB0000EA
:1018D0002DE9F143484F00244FF00A09387882B0CF
:1018E000401CC0B2B0FBF9F209FB1201434DA04607
:1018F000387009B10A2863D2012202A90220FFF739
:10190000BBFF9DF8080001075AD000F00F00062821
:1019100056D2FF218140C84340F0C00085F8200026
:101920004FF00108002695F8201008FA04F0014253
:1019300039D033480422694630F81400FFF79CFF81
:1019400095F830009DF80010C0079DF8010001F0E7
:101950000F010ED000EB012105EB4400C1829DF880
:1019600002209DF8031002F00F0201EB0221818199
:101970000FE000EB0120C0F5F07105EB4400818120
:101980009DF802209DF8031002F00F0201EB0221E6
:10199000C1829DF800000821B1EB101F03D005EBB8
:1019A0004400C6828681641CE4B2052CBBD3A9899D
:1019B0004FF0010819B9E88A08B98DF808603E703F
:1019C0009DF80800C0060ED195F82000010602D54A
:1019D00020F0800005E04FF6FF71A981E98200F058
:1019E000E00085F820003878F02801D987F80090C9
:1019F0004046BDE8FE830000700000207800002013
:101A00006C3001082DE9F04115460E4604460027CA
:101A1000FFF794FA7020FFF75DFAFFF7D7FAE0B20C
:101A2000FFF758FAFFF7D2FA002408E0305DFFF71D
:101A300051FAFFF7CBFA070003D1641CE4B2AC42C1
:101A4000F4D3FFF7A1FA3846BDE8F0812DE9FC4751
:101A50000024494F00944FF0080A019410204FF0E1
:101A60004009C7F800A0C7E901094FF48068C7E939
:101A700003480E462546384605F0E8FB1020FFF7E0
:101A8000E7FA00284DD13D4800890004386037202E
:101A9000C7E90109C7E90358384605F0D7FB3720E5
:101AA000FFF7D6FA00283CD1411E07F11400C0E927
:101AB000001A302181600221C0E903150121416132
:101AC00005F06CFB3320C7F80890C7E90050C7E960
:101AD0000358384605F0BAFB3320FFF7B9FA050082
:101AE0001FD1DFF89C804FF4001A6F4640F22A693C
:101AF000D8F8340010EA090F0BD1504605F076FBF8
:101B00000028F5D005F09CFB47F82400641C022C4B
:101B1000EED3082005F06AFB28B1082005F022FB6F
:101B20000420BDE8FC87022005F060FB20B1022004
:101B300005F018FB0220F4E7202005F057FB20B148
:101B4000202005F00FFB0620EBE74FF40074204641
:101B500005F04CFB20B1204605F004FB0720E0E730
:101B600040F2FF5005F0FEFA009800BA706001984C
:101B700000BA30602846D4E7F01A0020B0000020F8
:101B80000080014010B58A0721F003040649120FB6
:101B900021440F238C6893409C438C608B68904059
:101BA00003438B6010BD000000000140F0B5CC780D
:101BB000002204F00F03E40601D58C7823430C784F
:101BC0004FF00F0C14F0FF0F4FF0010E1BD0056803
:101BD0000E880EFA02F42640A64210D196000CFAA6
:101BE00006F725EA070703FA06F5CE783D43282EC7
:101BF00002D0482E02D002E0446100E00461521C91
:101C0000082AE5D305600A88FF2A1CD94468002207
:101C100002F108060EFA06F50E882E40AE420ED1ED
:101C200096000CFA06F7BC4303FA06F7CE783C435D
:101C3000282E00D14561CE78482E00D10561521C76
:101C4000082AE5D34460F0BDF0B5144C002801DA51
:101C5000E36900E06368450D2E0185B2C0F30157CA
:101C6000B540C0F30342032F05D0C6020AD50326B0
:101C70009640B34307E023F07062636823F070631B
:101C8000636002E0AB4343F0706201B12A43002875
:101C900001DAE261F0BD6260F0BD000000000140C9
:101CA0000246002092680A4200D00120704741613C
:101CB0007047016170470000FEB50121802005F0EA
:101CC00053F84FF40060ADF8080010208DF80B00B9
:101CD0000320384F8DF80A0002A93846FFF766FF47
:101CE00002213846FFF7E5FF3C15ADF808404820D3
:101CF0008DF80B0002A93846FFF758FF21463846F9
:101D0000FFF7D7FFFFF75EF82B4E0025C6F8AC5162
:101D10000A2006F5D67608F0A9FE012030600A20D8
:101D200008F0A4FEADF8084028208DF80B0002A9A9
:101D30003846FFF73BFF21463846FFF7B8FF6420DF
:101D400008F094FE0422694648F2401000F04AF878
:101D50008DF80450694619A0FEF7ACFA1AA168463E
:101D6000FEF7BAFC08B10120FEBD02208DF800008C
:101D700048F2400401226946204600F047F901225A
:101D80006946E01D00F02EF89DF80010602905D28C
:101D90000FA0FEF78FFA012000F012F90A2008F0D8
:101DA00065FE8DF8005001226946204600F02EF9AC
:101DB0000020FEBD001C01400080234243545020FF
:101DC00049443A25730D0A003931343700000000C8
:101DD00044656661756C74205665723A25640D0A17
:101DE000000000002DE9F04115460F460446FFF7BC
:101DF000A5F82820FFF76EF8FFF7E8F8200AFFF7AC
:101E000069F8FFF7E3F8E0B2FFF764F8FFF7DEF8F0
:101E1000FFF794F82920FFF75DF8FFF7D7F80024C3
:101E20006E1E09E0B44201D0012000E00020FFF75F
:101E300017F83855641CE4B2AC42F3D3BDE8F04166
:101E4000FFF7A2B82DE9F147594D00244FF00A0AD7
:101E5000287883B0401CC0B2B0FBFAF20AFB120132
:101E6000544EA046287009B10A2877D248F24E197C
:101E7000012203A94846FFF7B5FF9DF80C004FF07B
:101E8000000701060AD500F00F00062806D28DF8DB
:101E90000470012201A9484600F0B8F89DF80C0032
:101EA00001075BD000F00F01062957D2FF208840C0
:101EB0008DF80400C04396F8209040F0C00086F8EA
:101EC0002000B089B082F08AF0834FF0010896F8C4
:101ED000201008FA04F0014225D037480422694650
:101EE00030F81400FFF77EFF96F830009DF80110DF
:101EF000C0079DF8000000EB012106EB44000AD06A
:101F0000C1829DF802109DF8032001EB0221C1F56A
:101F10004871818107E081819DF802109DF80320BE
:101F200001EB0221C182641CE4B2052CCFD323490A
:101F3000B2894FF001080B8830469A4203D8C28A12
:101F400049888A4209D99DF80C1001F00F01012936
:101F50000BD9C1898181018BF1822F709DF80C0012
:101F600000F08F0080280AD018E0818A8181C18B1F
:101F7000C18280218DF80C1086F82090EEE796F84B
:101F80002000010602D520F0800005E04FF6FF7129
:101F9000B181F18200F0E00086F820002878F02876
:101FA00001D985F800A004B04046BDE8F0870000E4
:101FB00071000020780000202E310108C4020020AA
:101FC00008B500218DF800108DF801000E489DF82D
:101FD0000020435C491C1A44C9B28DF80020B8297E
:101FE000F5D3D0B2C043401C8DF80000B82206499A
:101FF00048F2470000F00AF80222694648F2FF0062
:1020000000F004F8002008BD763001082DE9F04109
:1020100015460E4604460027FEF790FF2820FEF7DF
:1020200059FFFEF7D3FF200AFEF754FFFEF7CEFF5D
:10203000E0B2FEF74FFFFEF7C9FF002408E0305D75
:10204000FEF748FFFEF7C2FF070003D1641CE4B2AD
:10205000AC42F4D3FEF798FF3846BDE8F0810000AB
:1020600010B50B4C0146072301222046FEF76CFDFC
:1020700001212046FEF7A7FD02212046FEF732FD92
:102080000028F9D02046BDE81040FEF728BD00002A
:10209000003C014030B40C4601461546500700D0C4
:1020A000012000EBD5006843C2B208784B78812844
:1020B00009D3402B07D3FF2B05D0FF2803D07F2B5C
:1020C0000CD2403B0BE00023184603E05B1C04F8F5
:1020D000010BDBB29342F9D330BC7047413B8138EE
:1020E000D9B2C0B2C0EB401303EB801001EB40004B
:1020F00050430A490C2D0AD0102D0BD0182DEBD1CE
:10210000D1F819100144204630BC07F06DBFD1F85A
:102110000910F7E7D1F81110F4E700009CC800207F
:1021200010B51421102007F0EFFD0FF085F90EF027
:10213000CDFF4FF066320C4B0EF0B8FC02460B465A
:102140000A480B490EF0D8FE0A4A0B4B0EF0AAFAC9
:1021500000220A4B0EF0F2F90022094B0EF0A6FC09
:102160000EF0F8FB00B210BD66664A3FE17A14AE8D
:1021700047E1F63F22FDF675E09C713F00003940D3
:1021800000005940FEE7000070B50D4C0025C4F872
:1021900098510C48016821F070410160016841F0DC
:1021A00040510160C4F89C51022004F5CC7408F041
:1021B00077FC01202060022008F072FC256070BDD1
:1021C00000802142000C014038B50121082004F0B4
:1021D000CBFDC020ADF8000010208DF803000320D7
:1021E000054C8DF8020069462046FFF7DFFCC02150
:1021F0002046FFF75EFD38BD000C014070B50D4C68
:102200000026C4F898610C48016821F07041016013
:10221000016841F0405101600125C4F89C51022041
:1022200004F5CC7408F03CFC2560022008F038FC72
:10223000266070BD00802142000C01402DE9F0476E
:10224000814617480024016821F07041016001684F
:1022500041F000410160134E254627464FF001082A
:10226000C6F89871022008F01BFCC6F89881600639
:10227000040ED6F81C0108B1641CE4B2012008F079
:102280000FFC6D1CEDB2082DEAD3B9F1000F04D09C
:10229000FFF77AFF2046BDE8F087FFF7AFFFF9E7C9
:1022A000000C0140008021422DE9F041054616480E
:1022B000016821F070410160016841F04051016006
:1022C000124E0027C6F898713C464FF001082806C8
:1022D00002D5C6F89C8101E0C6F89C716806050E1F
:1022E000022008F0DDFBC6F89881022008F0D8FB38
:1022F000C6F89871022008F0D3FB641CE4B2082CE5
:10230000E5D3BDE8F0810000000C014000802142CF
:1023100070B50D48016821F070410160016841F01D
:1023200040510160094C0120C4F89C01C4F8980197
:10233000042004F5CC7408F0B3FB0025656004208C
:1023400008F0AEFB256070BD000C0140008021420A
:102350000E4810B5016821F070410160016841F03C
:10236000405101600A4C0020C4F89801C4F89C0157
:10237000042004F5CC7408F093FB01202060606019
:10238000BDE81040042008F08BBB0000000C0140A9
:102390000080214270B513480024016821F070418B
:1023A0000160016841F0004101600F4D0126C5F850
:1023B0009C61304608F074FBC5F89861012008F074
:1023C0006FFB07E0641CE4B2FA2C03D9FFF7C0FFEF
:1023D000012070BDD5F81C010028F3D1C5F8980183
:1023E00070BD0000000C01400080214272B67047B1
:1023F00062B670477CB5054600211E4800910191E8
:10240000008902041C4802600D2242604022C0E99B
:1024100002211101016104F019FF184C606B019059
:10242000014601E0616B019111F0450FFAD00120E6
:1024300004F0DCFE20B1012004F094FE01207CBDFC
:10244000042004F0D3FE20B1042004F08BFE03200E
:102450007CBD20690D2801D010207CBD40F2FF50CA
:1024600004F080FE60690090C0F3432028700020D3
:102470007CBD0000B0000020F01A00200080014068
:1024800008B50121442004F06FFC1C20ADF80000C9
:1024900048208DF8030069460648FFF787FB0120B6
:1024A000ADF8000028208DF8030069460248FFF7C8
:1024B0007DFB08BD00180140000801402DE9F041F6
:1024C0002E4C2F4F2F4D012608B1267001E02078A9
:1024D000A0B110212846FFF7E3FBB0B10821284640
:1024E000FFF7DEFB88B104212846FFF7D9FB60B176
:1024F00001213846FFF7D4FB012806D010212846D9
:10250000FFF7CEFB012824D035E00A2008F0AEFA10
:102510000020207010212846FFF7C2FB80B108215F
:102520002846FFF7BDFB70B104212846FFF7B8FB32
:1025300058B101213846FFF7B3FB012807D01AE054
:102540000120BDE8F0810220FBE70320F9E7042029
:10255000F7E708212846FFF7A3FB01280BD1042148
:102560002846FFF79DFB012805D101213846FFF7DA
:1025700097FB00B926700020E3E700006000002010
:102580000008014000180140C0F34511C20AC00212
:1025900000EB4110104480B2704700002DE9F04379
:1025A000174F0646002438887D884543B888A0F533
:1025B000D041043902D1B879012807D0002108465A
:1025C00003F00EFB03F07CFD0E4815E00020B8710F
:1025D0004FF02A09A7F80A904FF02B08A7F80C80B3
:1025E000014603F0FDFA0120B871A7F80A80A7F8A8
:1025F0000C90E7E70680641CAC42FBD3BDE8F08397
:10260000C40200200008006C2DE9F0478246A2EBCE
:102610000A00401C0E4685B2981B401C87B200245D
:10262000DFF83890DDF8208014E0301981B2504690
:1026300003F0D6FA03F044FD0020494606E004FB0F
:10264000050338F813200A80401C80B2A842F6D354
:10265000641CA4B2BC42E8D3BDE8F0870008006C5B
:102660002DE9F04F4A492A232B24898845F2105A34
:102670004FF4305B4FF4285E4FF448754FF0F00C88
:1026800049F241394FF4A07745F210364FF4F07219
:1026900080B13F484FF00108494580F80680078027
:1026A000A0F802C001D0B1423ED12C250581438162
:1026B000848157E036484FF00008494580F806808D
:1026C000A0F800C0478006D0A1F5D04CBCF1040CA6
:1026D00001D0B1420CD12C2505814381A1F5D04315
:1026E0008481043B01D0B14244D10780428041E063
:1026F000514507D1A0F808B0A0F80AE04FF42C51DA
:1027000081810EE0A1F5C856633E06D022210181E9
:1027100020214181212181812CE02C2101814481D2
:1027200083810280458025E0A1F5D04CBCF1040CEA
:1027300009D051450BD1A0F808B0A0F80AE04FF439
:102740002C53838121E02C250581448109E0A1F5EA
:10275000C85CBCF1630C12D0222303812123438186
:1027600020238381A1F5D043043B01D0B14201D1A4
:1027700002804780BDE8F04F002003F05DB94FF0C4
:102780002C0CA0F808C04381848105804280E9E7D1
:10279000C40200202DE9FE4F0026A2EB000882466D
:1027A0005F1A701E35468946B8F1000F02DD4FF002
:1027B000010102E003D14FF00001019102E0C8F1F4
:1027C00000080190002F02DD4FF0010002E003D16C
:1027D0004FF00000009002E0C7F100070090404673
:1027E000B84501DD044600E03C46601C4FF0000B9C
:1027F000029015E01FFA89F11FFA8AF000F016F82E
:1028000046443D44A64202DD0199361B8A44A54256
:1028100002DD00992D1B89440BF101001FFA80FB9A
:1028200002998B45E6DDBDE8FE8F000000B503F0A0
:10283000D7F903F045FC024802490088088000BD32
:10284000620000200008006C2DE9FC4F8046002447
:10285000154603200F46A0EB450649E0781B81B2E0
:1028600008EB040A01901FFA8AF0FFF7DFFF381B1C
:1028700081B208EB050900901FFA89F0FFF7D6FF37
:1028800007EB040B1FFA8BF11FFA89F0FFF7CEFF5D
:1028900007EB05091FFA89F11FFA8AF0FFF7C6FF57
:1028A000A8EB040A1FFA89F11FFA8AF0FFF7BEFFAE
:1028B000A8EB05091FFA8BF11FFA89F0FFF7B6FFA5
:1028C000019881B21FFA8AF0FFF7B0FF009881B239
:1028D0001FFA89F0FFF7AAFF641C002E03DA06EB4B
:1028E0008406B61D04E0601B06EB80066D1E0A36EA
:1028F000AC42B3DDBDE8FC8F2DE9F04FDFF80C8171
:10290000934642460B46B8F804500C0ADFF800A183
:102910009189060A5289A5F513470AF10209413F38
:1029200018D0A5F5A647103F14D0B7F500771CD0F6
:102930004746A5F5C85CBE793F883F1A7F1EBCF1AB
:10294000630C27D0A5F5D04CBCF1040C3AD0012E75
:102950004AD04AE0AAF800204A46A9F80060C0B26E
:10296000A9F80000AAF800103AE0AAF80020A9F897
:102970000060521CAAF80020C0B2A9F80000AAF812
:102980000010A9F80040491CAAF80010D8B2A9F814
:10299000000033E006B9B8B2AAF80020050A4A469A
:1029A000A9F80050C7B2A9F80070A9F80050C0B249
:1029B000A9F80000AAF80010A9F80040D8B2A9F8B8
:1029C00000000DE0012E00D1B8B2AAF80020050ADF
:1029D0004A46A9F80050C0B2A9F80000AAF80010B1
:1029E0001480D8B2108009E0B8B20146104603F056
:1029F00071FBB8F80C00194603F06CFBB8F808102E
:102A0000AAF80010A9F800B0BDE8F08FC4020020B9
:102A1000FE07006C2DE9F8431F4D1F468046AB882A
:102A2000089EA3F5D040043802D1A879012807D028
:102A3000A2EB0800401C85B20C46DFF8609028E04D
:102A40002B880846991A0024AC713A462A24A3EB35
:102A500008036C812B27491E5B1EAF8189B29BB294
:102A60000096FFF7D7FF0120A8716F81AC81BDE808
:102A7000F8832146404603F0B3F803F021FB002021
:102A8000494602E00E80401C80B2A842FAD3641C82
:102A9000A4B2BC42EDD9EAE7C40200200008006CF1
:102AA0002DE9F04F01210E029FB0304604F044F9A9
:102AB00001214FF4B47004F057F90127ADF83C70D0
:102AC0004FF010088DF83F8003248DF83E400FA989
:102AD000FE48FFF76BF84CF23370ADF83C00182558
:102AE0008DF83F508DF83E400FA9F948FFF75EF88A
:102AF0004FF68070ADF83C008DF83F508DF83E40A9
:102B00000FA9F448FFF752F841F20100ADF83C007C
:102B10008DF83F508DF83E400FA9EF48FFF746F87B
:102B200000200F21CDE918011A901B901C901D90D8
:102B30001090CDE91104CDE91607149006211590E7
:102B4000CDE90010CDE90208139004903101CDE9E0
:102B500008010690059007908900CDE90A010C90C4
:102B600017A80D9010A80E906846FEF751FD0121A0
:102B70000620FEF73DFD322007F078FF002002F02E
:102B800031FFD64DD64C49F24139A88046F6040AA9
:102B900045F2103B45F210574FF6FF78FF2804D35B
:102BA000404502D0B0F5134F70D1D320208002F001
:102BB0008BFEA88002F088FEA88002F085FE08EA5D
:102BC00000204146A88002F07FFEAA881043A8801A
:102BD00048455BD0BF20208002F076FEA88002F03E
:102BE00073FEA88002F070FEA88002F06DFE01EA7C
:102BF0000020A88002F068FEAA881043A8805045F3
:102C000044D0D420208002F05FFEA88002F05CFE59
:102C1000A88002F059FE01EA0020A88002F054FECC
:102C2000AA881043A880584530D04FF45A402080DD
:102C300002F04AFEA8804FF45B40208002F044FE80
:102C400001EA0020A8804FF45C40208002F03CFEA6
:102C5000AA881043A880B0F5004F7DD0B84215D0A7
:102C6000A120208002F030FEA88002F02DFE01EAB3
:102C70000020A88002F028FEA9880843A0F5AE41F4
:102C8000A880613902D141F66310A880A98895A077
:102C9000FDF710FBA888924DAD1C48457ED1CF2092
:102CA000208000202880C120288030202880ED202E
:102CB0002080642028800320288012202880812002
:102CC0002880E820208085202880102028807A20F5
:102CD0002880CB202080392028802C2028800020AC
:102CE00028803420288002202880F720208020207F
:102CF0002880EA202080002028802880C020208092
:102D00001B202880C120208001202880C520208011
:102D1000302028802880C7202080B72028803620B7
:102D20002080482028803A20208055202880B1200B
:102D30002080002028801A202880B62020800A20A9
:102D40002880A2202880F2202080002028802620B1
:102D500020800120288000E051E0E02020800F202A
:102D600028802A20288028202880082028800E20DB
:102D700028800820288054202880A92028804320EB
:102D800028800A2028800F20288000202880288082
:102D900028802880E1202080002000E031E0288089
:102DA00015202880172028800720288011202880BF
:102DB000062028802B202880562028803C20288030
:102DC00005202880102028800F2028803F20288080
:102DD00028800F2028802B20208000202880288019
:102DE000012028803F2028802A2020800020288061
:102DF00028802880EF2028801120208084E0AF8068
:102E000044E7504576D111202080142007F02EFE93
:102E1000D020208007202880422028801D20288064
:102E2000D1202080002028801A2028800920288096
:102E3000D22020800120288022202880C0202080CD
:102E4000102028803B202880002028800220288015
:102E500011202880C520208003202880C8202080C1
:102E600000202880252028802120288005202880F7
:102E7000002028800A20288065202880252028809E
:102E800077202880502028800F202880002028804C
:102E9000F820208001202880FE202080002028802B
:102EA00002202880202020803620208008202880B2
:102EB0003A202080552028802B2020800020288048
:102EC0002880012028803F20288014E0000C014049
:102ED000001401400018014000200140C4020020FD
:102EE000FE07006C204C43442049443A25780D0AE3
:102EF000000000000EE02A2020800020288028808A
:102F000001202880DF202880782007F0AFFD2920CD
:102F100001F02DBC58457DD1ED2020800120288076
:102F2000FE202880EE202080DE202880212028809E
:102F3000F120208001202880DF20208010202880A0
:102F4000C42020808F202880C62020800020288058
:102F5000E220288028802880BF202080AA20288086
:102F6000B02020800D202880002028800D2028807F
:102F70000020288011202880002028801920288007
:102F80000020288021202880002028802D202880D3
:102F9000002028803D202880002028805D20288077
:102FA000002028805D20288000202880B1202080FB
:102FB00080202880002028808B20288000202880E6
:102FC0009620288000202880B220208000202880A1
:102FD00028800220288000202880032028800020CC
:102FE0002880B32020800020288028802880288006
:102FF0002880288028802880288028802880288091
:103000002880288028802880288028802880288080
:10301000288000E0FEE3288028802880B4202080DB
:103020008B2028800020288096202880002028805F
:10303000A120288000202880B52020800220288020
:103040000020288003202880002028800420288059
:1030500000202880B6202080002028802880B720EB
:1030600020800020288028803F2028800020288081
:103070005E2028800020288064202880002028806E
:103080008C20288000202880AC20288000202880E8
:10309000DC202880002028807020288000202880C4
:1030A0009020288000202880EB2028800020288085
:1030B000DC20288000202880B82020800020288064
:1030C0002880288028802880288028802880BA208E
:1030D0002080242028800020288028802880C1206B
:1030E0002080202028800020288054202880002054
:1030F0002880FF20288000202880C22020800A20ED
:103100002880002028800420288000202880C320D8
:1031100020803C202880002028803A202880002021
:10312000288039202880002028803720288000200F
:1031300028803C20288000202880362028800020FD
:10314000288032202880002028802F2028800020FE
:1031500028802C20288000202880292028800020FA
:1031600028802620288000202880242028800020F5
:1031700028802420288000202880232028800020E8
:1031800028803C20288000202880362028800020AD
:10319000288032202880002028802F2028800020AE
:1031A00028802C20288000202880292028800020AA
:1031B00028802620288000202880242028800020A5
:1031C0002880242028800020288023202880002098
:1031D0002880C420208062202880002028800520AC
:1031E0002880002028808420288000202880F0204B
:1031F0002880002028801820288000202880A420F3
:103200002880002028801820288000202880502036
:103210002880002028800C2028800020288017206B
:103220002880002028809520288000202880F320F6
:10323000288000202880E620288000202880C520C3
:1032400020803220288000202880442028800020F0
:103250002880652028800020288076202880002073
:1032600028808820288000202880C62020802020D8
:103270002880002028801720288000202880012016
:10328000288000202880C7202080002028802880D7
:1032900028802880C820208000202880288028803E
:1032A0002880C9202080002028802880288028802D
:1032B00028802880288028802880288028802880CE
:1032C0002880288028802880E020208016202880E0
:1032D000002028801C202880002028802120288091
:1032E0000020288036202880002028804620288042
:1032F00000202880522028800020288064202880F8
:10330000002028807A202880002028808B20288098
:10331000002028809920288000202880A82028804C
:1033200000202880B920288000202880C420288000
:1033300000202880CA20288000202880D2202880D1
:1033400000202880D920288000202880E0202880A4
:1033500000202880F320288000202880E120208081
:1033600016202880002028801C202880002028800B
:1033700022202880002028803620288000202880D5
:103380004520288000202880522028800020288086
:1033900064202880002028807A202880002028802F
:1033A0008B202880002028809920288000202880D9
:1033B000A820288000202880B9202880002028808C
:1033C000C420288000202880CA202880002028804F
:1033D000D220288000202880D82028800020288023
:1033E000E020288000202880F320288000202880EA
:1033F000E220208005202880002028800B202880C3
:10340000002028801B20288000202880342028804D
:103410000020288044202880002028804F202880F9
:1034200000202880612028800020288079202880A2
:10343000002028808820288000202880972028804D
:1034400000202880A620288000202880B7202880FF
:1034500000202880C220288000202880C7202880C3
:1034600000202880D120288000202880D620288095
:1034700000202880DD20288000202880F32028805C
:1034800000202880E320208005202880002028803C
:103490000A202880002028801C20288000202880E6
:1034A0003320288000202880442028800020288085
:1034B000502028800020288062202880002028803A
:1034C00078202880002028808820288000202880DC
:1034D0009720288000202880A6202880002028808F
:1034E000B720288000202880C22028800020288043
:1034F000C720288000202880D12028800020288014
:10350000D520288000202880DD20288000202880E9
:10351000F320288000202880E420208001202880BB
:103520000020288001202880002028800220288078
:10353000002028802A202880002028803C20288005
:10354000002028804B202880002028805D202880B3
:103550000020288074202880002028808420288053
:10356000002028809320288000202880A220288006
:1035700000202880B320288000202880BE202880BA
:1035800000202880C420288000202880CD2028808A
:1035900000202880D320288000202880DD2028805B
:1035A00000202880F320288000202880E52020802B
:1035B0000020288028802880288002202880002061
:1035C000288029202880002028803C202880002076
:1035D00028804B202880002028805D202880002023
:1035E00028807420288000202880842028800020C3
:1035F00028809320288000202880A2202880002076
:103600002880B320288000202880BE202880002029
:103610002880C420288000202880CD2028800020F9
:103620002880D320288000202880DC2028800020CB
:103630002880F320288000202880E6202080112088
:1036400028800020288034202880002028805620D0
:10365000288000202880762028800020288077205D
:10366000288000202880662028800020288088204C
:103670002880002028809920288000202880BB20D6
:10368000288000202880992028800020288066201B
:103690002880002028805520288000202880552060
:1036A0002880002028804520288000202880432072
:1036B0002880002028804420288000202880E720BF
:1036C000208032202880002028805520288000205B
:1036D00028807620288000202880662028800020EE
:1036E00028806720288000202880672028800020EC
:1036F000288087202880002028809920288000208A
:103700002880BB2028800020288099202880002045
:1037100028807720288000202880442028800020CE
:103720002880562028800020288023202880002000
:1037300028803320288000202880452028800020F1
:103740002880E82020800020288028809920288058
:10375000002028808720288000202880882028803A
:10376000002028807720288000202880662028805C
:10377000002028808820288000202880AA202880F7
:1037800000202880BB2028800020288099202880C5
:10379000002028806620288000202880552028804E
:1037A0000020288055202880002028804420288060
:1037B0000020288044202880002028805520288050
:1037C00000202880E9202080AA202880002028804E
:1037D000288028802080AA202880CF2020800020D8
:1037E0002880288028802880288028802880288099
:1037F0002880288028802880288028802880288089
:103800002880F02020800020288050202880002060
:10381000288000E02CE028802880F32020800020F1
:103820002880F92020800620288010202880292048
:103830002880002028803A202080552028801120D0
:103840002080642007F012F9292020803520208074
:103850000020288051202080FF20288053202080B5
:103860002C20288055202080822028802C20FCE3DA
:10387000B8427DD14FF470435521184602F02AFC1E
:103880004FF20105AA21284602F024FC6E1C5221A9
:10389000304602F01FFCAF1C0821384602F01AFC2B
:1038A0004FF204090121484602F014FC0D214FF4A7
:1038B000304002F00FFC0D214BF2010002F00AFC37
:1038C0000D214BF2020002F005FC4FF4364A342180
:1038D000504602F0FFFB34214BF2016002F0FAFB8C
:1038E00034214BF2026002F0F5FB4FF4314B0D2115
:1038F000584602F0EFFB0D214BF2011002F0EAFBFB
:103900000D214BF2021002F0E5FB34214FF4374059
:1039100002F0E0FB34214BF2017002F0DBFB3421BA
:103920004BF2027002F0D6FB00214FF4324002F05D
:10393000D1FB00214BF2012002F0CCFB00214BF225
:10394000022002F0C7FB24214FF4384002F0C2FBF2
:1039500024214BF6010002F0BDFB24214BF60200AE
:1039600002F0B8FB01214FF43F4002F0B3FB00E04E
:10397000FEE30F214FF4334002F0ACFB0F214BF27A
:10398000013002F0A7FB0F214BF2023002F0A2FB44
:1039900034214FF4394002F09DFB34214BF60110E5
:1039A00002F098FB34214BF6021002F093FB082141
:1039B0004FF4354002F08EFB08214BF2015002F02B
:1039C00089FB08214BF2025002F084FB03214FF4E3
:1039D000424002F07FFB24214FF43A4002F07AFB90
:1039E00024214BF6012002F075FB24214BF6022026
:1039F00002F070FB00214FF43C4002F06BFB782199
:103A00004BF6014002F066FB00214BF6024002F04B
:103A100061FB00214FF43D4002F05CFB78214BF646
:103A2000015002F057FB00214BF6025002F052FB0E
:103A300000214FF43E4002F04DFB64214BF6016043
:103A400002F048FB00214FF4514002F043FB3321C8
:103A50004DF2011002F03EFB00214DF2021002F087
:103A600039FB34214DF2031002F034FB00214DF2FA
:103A7000041002F02FFB3A214DF2051002F02AFB50
:103A800000214DF2061002F025FB4A214DF20710ED
:103A900002F020FB00214DF2081002F01BFB5C211C
:103AA0004DF2091002F016FB00214DF20A1002F04F
:103AB00011FB81214DF20B1002F00CFB00214DF2A5
:103AC0000C1002F007FBA6214DF20D1002F002FBD4
:103AD00000214DF20E1002F0FDFAE5214DF20F101B
:103AE00002F0F8FA01214DF2101002F0F3FA13215E
:103AF0004DF2111002F0EEFA01214DF2121002F017
:103B0000E9FA54214DF2131002F0E4FA01214DF2CA
:103B1000141002F0DFFA82214DF2151002F0DAFAE9
:103B200001214DF2161002F0D5FACA214DF21710FC
:103B300002F0D0FA02214DF2181002F0CBFA002167
:103B40004DF2191002F0C6FA02214DF21A1002F0DD
:103B5000C1FA01214DF21B1002F0BCFA02214DF214
:103B60001C1002F0B7FA34214DF21D1002F0B2FA27
:103B700002214DF21E1002F0ADFA67214DF21F1026
:103B800002F0A8FA02214DF2201002F0A3FA8421DB
:103B90004DF2211002F09EFA02214DF2221002F0A5
:103BA00099FAA4214DF2231002F094FA02214DF269
:103BB000241002F08FFAB7214DF2251002F08AFA94
:103BC00002214DF2261002F085FACF214DF2271086
:103BD00002F080FA02214DF2281002F07BFADE2179
:103BE0004DF2291002F076FA02214DF22A1002F06D
:103BF00071FAF2214DF22B1002F06CFA02214DF213
:103C00002C1002F067FAFE214DF22D1002F062FA3C
:103C100003214DF22E1002F05DFA10214DF22F100B
:103C200002F058FA03214DF2301002F053FA33211A
:103C30004DF2311002F04EFA03214DF2321002F033
:103C400049FA6D214DF2331002F044FA00214FF48D
:103C5000524002F03FFA33214DF2012002F03AFACD
:103C600000214DF2022002F035FA34214DF20320FA
:103C700002F030FA00214DF2042002F02BFA3A2132
:103C80004DF2052002F026FA00214DF2062002F046
:103C900021FA4A214DF2072002F01CFA00214DF2D0
:103CA000082002F017FA5C214DF2092002F012FA06
:103CB00000214DF20A2002F00DFA81214DF20B2075
:103CC00002F008FA00214DF20C2002F003FAA621BE
:103CD0004DF20D2002F0FEF900214DF20E2002F00F
:103CE000F9F9E5214DF20F2002F0F4F901214DF22E
:103CF000102002F0EFF913214DF2112002F0EAF941
:103D000001214DF2122002F0E5F954214DF2132069
:103D100002F0E0F901214DF2142002F0DBF98221DA
:103D20004DF2152002F0D6F901214DF2162002F0D5
:103D3000D1F9CA214DF2172002F0CCF902214DF23F
:103D4000182002F0C7F900214DF2192002F0C2F943
:103D500002214DF21A2002F0BDF901214DF21B2083
:103D600002F0B8F902214DF21C2002F0B3F934211F
:103D70004DF21D2002F0AEF902214DF21E2002F09C
:103D8000A9F967214DF21F2002F0A4F902214DF29A
:103D9000202002F09FF984214DF2212002F09AF9AF
:103DA00002214DF2222002F095F9A4214DF22320A8
:103DB00002F090F902214DF2242002F08BF9B72194
:103DC0004DF2252002F086F902214DF2262002F064
:103DD00081F9CF214DF2272002F07CF902214DF22A
:103DE000282002F077F9DE214DF2292002F072F945
:103DF00002214DF22A2002F06DF9F2214DF22B2022
:103E000002F068F902214DF22C2002F063F9FE2144
:103E10004DF22D2002F05EF903214DF22E2002F02A
:103E200059F910214DF22F2002F054F903214DF2DF
:103E3000302002F04FF933214DF2312002F04AF9DF
:103E400003214DF2322002F045F96D214DF233206D
:103E500002F040F900214FF4534002F03BF93321C6
:103E60004DF2013002F036F900214DF2023002F03D
:103E700031F934214DF2033002F02CF900214DF2DA
:103E8000043002F027F93A214DF2053002F022F910
:103E900000214DF2063002F01DF94A214DF20730A3
:103EA00002F018F900214DF2083002F013F95C21FC
:103EB0004DF2093002F00EF900214DF20A3002F005
:103EC00009F981214DF20B3002F004F900214DF285
:103ED0000C3002F0FFF8A6214DF20D3002F0FAF896
:103EE00000214DF20E3002F0F5F8E5214DF20F30D1
:103EF00002F0F0F801214DF2103002F0EBF813213E
:103F00004DF2113002F0E6F801214DF2123002F0CC
:103F1000E1F854214DF2133002F0DCF801214DF2AA
:103F2000143002F0D7F882214DF2153002F0D2F8A9
:103F300001214DF2163002F0CDF8CA214DF21730B2
:103F400002F0C8F802214DF2183002F0C3F8002147
:103F50004DF2193002F0BEF802214DF21A3002F093
:103F6000B9F801214DF21B3002F0B4F802214DF2F4
:103F70001C3002F0AFF834214DF21D3002F0AAF8E7
:103F800002214DF21E3002F0A5F867214DF21F30DC
:103F900002F0A0F802214DF2203002F09BF88421BB
:103FA0004DF2213002F096F802214DF2223002F05B
:103FB00091F8A4214DF2233002F08CF802214DF249
:103FC000243002F087F8B7214DF2253002F082F854
:103FD00002214DF2263002F07DF8CF214DF227303C
:103FE00002F078F802214DF2283002F073F8DE2159
:103FF0004DF2293002F06EF802214DF22A3002F023
:1040000069F8F2214DF22B3002F064F802214DF2F2
:104010002C3002F05FF8FE214DF22D3002F05AF8FC
:1040200003214DF22E3002F055F810214DF22F30C1
:1040300002F050F803214DF2303002F04BF83321FA
:104040004DF2313002F046F803214DF2323002F0E9
:1040500041F86D214DF2333002F03CF800214FF46D
:10406000544002F037F8332100E080E34DF2014084
:1040700002F030F800214DF2024002F02BF834211A
:104080004DF2034002F026F800214DF2044002F008
:1040900021F83A214DF2054002F01CF800214DF2C2
:1040A000064002F017F84A214DF2074002F012F8DC
:1040B00000214DF2084002F00DF85C214DF209405C
:1040C00002F008F800214DF20A4002F003F88121C5
:1040D0004DF20B4001F0FEFF00214DF20C4001F0CB
:1040E000F9FFA6214DF20D4001F0F4FF00214DF241
:1040F0000E4001F0EFFFE5214DF20F4001F0EAFF25
:1041000001214DF2104001F0E5FF13214DF2114065
:1041100001F0E0FF01214DF2124001F0DBFF5421DC
:104120004DF2134001F0D6FF01214DF2144001F091
:10413000D1FF82214DF2154001F0CCFF01214DF25B
:10414000164001F0C7FFCA214DF2174001F0C2FF2F
:1041500002214DF2184001F0BDFF00214DF219403F
:1041600001F0B8FF02214DF21A4001F0B3FF00E068
:10417000FFE201214DF21B4001F0ACFF02214DF2A4
:104180001C4001F0A7FF34214DF21D4001F0A2FFB9
:1041900002214DF21E4001F09DFF67214DF21F40AC
:1041A00001F098FF02214DF2204001F093FF84219D
:1041B0004DF2214001F08EFF02214DF2224001F02C
:1041C00089FFA4214DF2234001F084FF02214DF22A
:1041D000244001F07FFFB7214DF2254001F07AFF26
:1041E00002214DF2264001F075FFCF214DF227400C
:1041F00001F070FF02214DF2284001F06BFFDE213B
:104200004DF2294001F066FF02214DF22A4001F0F3
:1042100061FFF2214DF22B4001F05CFF02214DF2D3
:104220002C4001F057FFFE214DF22D4001F052FFCE
:1042300003214DF22E4001F04DFF10214DF22F4091
:1042400001F048FF03214DF2304001F043FF3321DC
:104250004DF2314001F03EFF03214DF2324001F0BA
:1042600039FF6D214DF2334001F034FF00214FF44E
:10427000554001F02FFF33214DF2015001F02AFF8C
:1042800000214DF2025001F025FF34214DF2035080
:1042900001F020FF00214DF2045001F01BFF3A21F4
:1042A0004DF2055001F016FF00214DF2065001F0CD
:1042B00011FF4A214DF2075001F00CFF00214DF291
:1042C000085001F007FF5C214DF2095001F002FF98
:1042D00000214DF20A5001F0FDFE81214DF20B50FC
:1042E00001F0F8FE00214DF20C5001F0F3FEA62182
:1042F0004DF20D5001F0EEFE00214DF20E5001F096
:10430000E9FEE5214DF20F5001F0E4FE01214DF2EE
:10431000105001F0DFFE13214DF2115001F0DAFED2
:1043200001214DF2125001F0D5FE54214DF21350EF
:1043300001F0D0FE01214DF2145001F0CBFE82219C
:104340004DF2155001F0C6FE01214DF2165001F05C
:10435000C1FECA214DF2175001F0BCFE02214DF200
:10436000185001F0B7FE00214DF2195001F0B2FED5
:1043700002214DF21A5001F0ADFE01214DF21B5009
:1043800001F0A8FE02214DF21C5001F0A3FE3421E1
:104390004DF21D5001F09EFE02214DF21E5001F023
:1043A00099FE67214DF21F5001F094FE02214DF25B
:1043B000205001F08FFE84214DF2215001F08AFE41
:1043C00002214DF2225001F085FEA4214DF223502E
:1043D00001F080FE02214DF2245001F07BFEB72156
:1043E0004DF2255001F076FE02214DF2265001F0EB
:1043F00071FECF214DF2275001F06CFE02214DF2EB
:10440000285001F067FEDE214DF2295001F062FED6
:1044100002214DF22A5001F05DFEF2214DF22B50A7
:1044200001F058FE02214DF22C5001F053FEFE2106
:104430004DF22D5001F04EFE03214DF22E5001F0B1
:1044400049FE10214DF22F5001F044FE03214DF2A0
:10445000305001F03FFE33214DF2315001F03AFE71
:1044600003214DF2325001F035FE6D214DF23350F3
:1044700001F030FE00214FF4564001F02BFE3321B5
:104480004DF2016001F026FE00214DF2026001F0C4
:1044900021FE34214DF2036001F01CFE00214DF29B
:1044A000046001F017FE3A214DF2056001F012FEA2
:1044B00000214DF2066001F00DFE4A214DF2076029
:1044C00001F008FE00214DF2086001F003FE5C21BE
:1044D0004DF2096001F0FEFD00214DF20A6001F08D
:1044E000F9FD81214DF20B6001F0F4FD00214DF248
:1044F0000C6001F0EFFDA6214DF20D6001F0EAFD28
:1045000000214DF20E6001F0E5FDE5214DF20F6056
:1045100001F0E0FD01214DF2106001F0DBFD1321FF
:104520004DF2116001F0D6FD01214DF2126001F053
:10453000D1FD54214DF2136001F0CCFD01214DF26B
:10454000146001F0C7FD82214DF2156001F0C2FD3B
:1045500001214DF2166001F0BDFDCA214DF2176038
:1045600001F0B8FD02214DF2186001F0B3FD002109
:104570004DF2196001F0AEFD02214DF21A6001F01A
:10458000A9FD01214DF21B6001F0A4FD02214DF2B5
:104590001C6001F09FFD34214DF21D6001F09AFD79
:1045A00002214DF21E6001F095FD67214DF21F6062
:1045B00001F090FD02214DF2206001F08BFD84217D
:1045C0004DF2216001F086FD02214DF2226001F0E2
:1045D00081FDA4214DF2236001F07CFD02214DF20A
:1045E000246001F077FDB7214DF2256001F072FDE6
:1045F00002214DF2266001F06DFDCF214DF22760C2
:1046000001F068FD02214DF2286001F063FDDE211A
:104610004DF2296001F05EFD02214DF22A6001F0A9
:1046200059FDF2214DF22B6001F054FD02214DF2B3
:104630002C6001F04FFDFE214DF22D6001F04AFD8E
:1046400003214DF22E6001F045FD10214DF22F6047
:1046500001F040FD03214DF2306001F03BFD3321BC
:104660004DF2316001F036FD03214DF2326001F070
:1046700031FD6D214DF2336001F02CFD55211846BE
:1046800001F028FDAA21284601F024FD52213046E0
:1046900001F020FD0821384601F01CFD00214846AC
:1046A00001F018FDCC21584601F014FD00214BF219
:1046B000011001F00FFD0521504601F00BFD7021A6
:1046C0004FF4374001F006FD70214BF2017001F00C
:1046D00001FD01214FF4384001F0FCFC03214BF6B1
:1046E000010001F0F7FC03214BF6020001F0F2FC9F
:1046F00003214BF6030001F0EDFC02214FF43C4096
:1047000001F0E8FC00214BF6014001F0E3FC002140
:104710004BF6024001F0DEFCD0214FF4494001F09D
:10472000D9FC02214CF6011001F0D4FC50214CF6CA
:10473000021001F0CFFC50214CF6031001F0CAFC2E
:1047400050214CF6041001F0C5FC00214FF45450E8
:1047500001F0C0FC55214FF4685001F0BBFC4FF450
:1047600088502080782006F09BF94FF42450208058
:10477000FEE3A0F513414FF4E06940F2022A4FF442
:10478000274B253924D040F20777C91E7ED04FF43D
:10479000887B08317BD011397AD0A0F5A84108393F
:1047A00077D0A0F5A8514FF4407B053972D0B1F510
:1047B000204170D0B1F580516ED0A0F58A413139D9
:1047C0006BD0091F6AD0A0F5C851633967D0CFE715
:1047D00047F6F001E52001F07DFC3146012001F0B3
:1047E00079FC4946022001F075FC41F230010320BA
:1047F00001F070FC0021042001F06CFC51460820FF
:1048000001F068FC0021092001F064FC00210A206D
:1048100001F060FC00210C2001F05CFC00210D2067
:1048200001F058FC00210F2001F054FC0021102061
:1048300001F050FC0721112001F04CFC0021122056
:1048400001F048FC0021132001F044FC0021072066
:1048500001F040FC41F29061102001F03BFC40F27D
:104860002721112001F036FC9D21122001F032FC9D
:104870004FF4C851132001F02DFC2521292001F00F
:1048800029FC0D212B2001F025FC09E077E033E124
:10489000D8E1AEE24AE3FDE3FDE3FDE3FDE3FDE342
:1048A0000721302001F016FC40F20331312001F0E5
:1048B00011FC0321322001F00DFC40F206213520CD
:1048C00001F008FC0821362001F004FC40F206410A
:1048D000372001F0FFFB4FF44171382001F0FAFB63
:1048E0000721392001F0F6FB40F202613C2001F083
:1048F000F1FB08213D2001F0EDFB0021502001F0EB
:10490000E9FBEF21512001F0E5FB0021522001F0ED
:10491000E1FB40F23F11532001F0DCFB59466020DF
:1049200001F0D8FB0121612001F0D4FB00216A20B5
:1049300001F0D0FB0021802001F0CCFB0021812080
:1049400001F0C8FB0021822001F0C4FB002183207C
:1049500001F0C0FB0021842001F0BCFB0021852078
:1049600001F0B8FB1021902001F0B4FB4FF4C061BE
:10497000922001F0AFFB40F233110720FDE341F23A
:104980008F01EC2001F0A6FB41F23421EF2001F071
:10499000A1FB3146012001F09DFB4946022001F0B8
:1049A00099FB41F23001032001F094FB0021042027
:1049B00001F090FB5146082001F08CFB00210920FA
:1049C00001F088FB00210A2001F084FB01210C206A
:1049D00001F080FB00210D2001F07CFB00210F2065
:1049E00001F078FB0021102001F074FB0721112059
:1049F00001F070FB0021122001F06CFB002113205C
:104A000001F068FB0121072001F064FB322006F071
:104A10002DF841F29041102001F05CFB40F227217B
:104A2000112001F057FB322006F020F88A211220D5
:104A300001F050FB322006F019F84FF4D05113204A
:104A400001F048FB0621292001F044FB0D212B2019
:104A500001F040FB322006F009F80021202001F08F
:104A600039FB0021212001F035FB322005F0FEFF4B
:104A70000021302001F02EFB40F20461312001F0D2
:104A800029FB40F20531322001F024FB00213520C2
:104A900001F020FB40F60941362001F01BFB4FF4EA
:104AA0000171372001F016FB40F20131382001F08E
:104AB00011FB3946392001F00DFB00213C2001F0AB
:104AC00009FB40F60A213D2001F004FB322005F0ED
:104AD000CDFF0021502001F0FDFAEF21512001F01F
:104AE000F9FA0021522001F0F5FA40F23F1153206B
:104AF00001F0F0FA594651E10021084601F0EAFAC6
:104B00003146012001F0E6FA4946022001F0E2FABE
:104B100041F23001032001F0DDFA0021042001F010
:104B2000D9FA5146082001F0D5FA0021092001F0F8
:104B3000D1FA00210A2001F0CDFA01210C2001F068
:104B4000C9FA00210D2001F0C5FA00210F2001F063
:104B5000C1FA322005F08AFF40F20111072001F06E
:104B6000B9FA322005F082FF4FF48651102001F08F
:104B7000B1FA0721112001F0ADFA5B465946122027
:104B800001F0A8FA4FF43061132001F0A3FA0021DC
:104B9000292001F09FFA44F210012B2001F09AFA2B
:104BA0000021502001F096FAEF21512001F092FAF5
:104BB0000021522001F08EFA40F23F11532001F003
:104BC00089FA4FF41C51602001F084FA0121612020
:104BD00001F080FA00216A2001F07CFA0021802097
:104BE00001F078FA0021812001F074FA002182207E
:104BF00001F070FA0021832001F06CFA002184207A
:104C000001F068FA0021852001F064FA102190205B
:104C100001F060FA0021922001F05CFA012193205A
:104C200001F058FA1946952001F054FA0021972016
:104C300001F050FA0021982001F04CFA40F2731173
:104C4000072085E341F21401E72001F043FA3146E1
:104C5000012001F03FFA4FF40071022001F03AFA0E
:104C600041F23801032001F035FA5146082001F0E5
:104C700031FA0021092001F02DFA00210A2001F06B
:104C800029FA00210C2001F025FA00210D2001F065
:104C900021FA00210F2001F01DFA0021102001F05F
:104CA00019FA0721112001F015FA0021122001F054
:104CB00011FA0021132001F00DFAC82005F0D6FEEC
:104CC00041F29061102001F005FA40F227211120F5
:104CD00001F000FA322005F0C9FE0C21122001F08B
:104CE000F9F9322005F0C2FE4FF40061132001F003
:104CF000F1F91121292001F0EDF90B212B2001F010
:104D0000E9F9322005F0B2FE0021202001F0E2F99D
:104D100040F23F131946212001F0DCF90021302038
:104D200001F0D8F94FF483742146312001F0D2F913
:104D30000021322001F0CEF94FF40171352001F04D
:104D4000C9F941F20A61362001F0C4F93946372029
:104D500001F0C0F92146382001F0BCF9394639206C
:104D600001F0B8F940F202413C2001F0B3F940F6FD
:104D70000F413D2001F0AEF90021502001F0AAF9C9
:104D8000EF21512001F0A6F90021522001F0A2F9F3
:104D90001946532001F09EF94FF41C51602001F098
:104DA00099F90121612001F095F900216A2001F0B3
:104DB00091F90021802001F08DF90021812001F07E
:104DC00089F90021822001F085F90021832001F07A
:104DD00081F90021842001F07DF90021852001F076
:104DE00079F91021902001F075F94FF4C0619220FB
:104DF000FDE33146012001F06DF94946022001F042
:104E000069F941F23001032001F064F90021042026
:104E100001F060F940F20721082001F05BF9002160
:104E2000092001F057F900210A2001F053F900216F
:104E30000C2001F04FF900210D2001F04BF9002169
:104E40000F2001F047F9142005F010FE41F2B06187
:104E5000102001F03FF90121112001F03BF901215F
:104E6000172001F037F94FF49C71122001F032F94C
:104E70004FF40061132001F02DF90921292001F0E0
:104E800029F909212A2001F025F90021A42001F0A7
:104E900021F90021502001F01DF9EF21512001F0EE
:104EA00019F90021522001F015F940F23F11532069
:104EB00001F010F94FF41C51602001F00BF90121B1
:104EC000612001F007F900216A2001F003F90021B7
:104ED000802001F0FFF80021812001F0FBF8002183
:104EE000822001F0F7F80021832001F0F3F800217F
:104EF000842001F0EFF80021852001F0EBF8132168
:104F0000902001F0E7F80021922001F0E3F803215E
:104F1000932001F0DFF85946952001F0DBF840F2CC
:104F20007311072001F0D6F8322010E1002107208C
:104F300001F0D0F8322005F099FD4FF48E71122067
:104F400001F0C8F80121A42001F0C4F80F210820C5
:104F500001F0C0F808210A2001F0BCF808210D205A
:104F600001F0B8F83946302001F0B4F8072100E02C
:104F70006FE3312001F0AEF840F20361322001F01E
:104F8000A9F84C464946332001F0A4F85146342094
:104F900001F0A0F80221352001F09CF841F60F71D4
:104FA000362001F097F83946372001F093F80021B8
:104FB000382001F08FF80021392001F08BF83946B4
:104FC0003A2001F087F800213B2001F083F8072107
:104FD0003C2001F07FF800213D2001F07BF83220D9
:104FE00005F044FD0121072001F074F8012117208C
:104FF00001F070F8322005F039FD4FF4BD5110205A
:1050000001F068F840F21721112001F063F84FF425
:105010008F71122001F05EF84FF47061132001F0DF
:1050200059F800212A2001F055F80A21292001F021
:1050300051F84FF49F71122001F04CF800215020DC
:1050400001F048F8EF21512001F044F800215220EE
:1050500001F040F840F23F11532001F03BF84FF4CB
:105060001C51602001F036F80121612001F032F876
:1050700000216A2001F02EF80021802001F02AF89A
:105080000021812001F026F80021822001F022F881
:10509000002104E05EE05CE125E2DBE282E38320C4
:1050A00001F018F80021842001F014F80021852077
:1050B00001F010F81321902001F00CF859469220CD
:1050C00001F008F80521932001F004F80021952053
:1050D00001F000F80021972000F0FCFF002198204B
:1050E00000F0F8FF3146012000F0F4FF21460220D5
:1050F00000F0F0FF41F23801032000F0EBFF002147
:10510000042000F0E7FF00210C2000F0E3FF002165
:105110000F2000F0DFFF0021202000F0DBFF002146
:10512000212000F0D7FF2121072000F0D3FF142019
:1051300005F09CFC6121072000F0CCFF142005F055
:1051400095FC40F27311072000F0C4FF142005F015
:105150008DFCA1E30021084600F0BCFF00210846B9
:1051600000F0B8FF0021084600F0B4FF0021084617
:1051700000F0B0FF0121A42000E0E5E000F0AAFF6C
:10518000142005F073FC4FF41C542146602000F0FD
:10519000A1FF55465146082000F09CFF4FF40571D1
:1051A000302000F097FF43F21571312000F092FF9C
:1051B00040F20461322000F08DFF40F6166133208A
:1051C00000F088FF42F21121342000F083FF4FF4F9
:1051D000A851352000F07EFF48F20751362000F03C
:1051E00079FF41F20741372000F074FF41F203419B
:1051F000382000F06FFF2021392000F06BFF1A21CA
:10520000902000F067FF0021102000F063FF0721CD
:10521000112000F05FFF0021122000F05BFF002151
:10522000132000F057FF142005F020FC4FF4E66136
:10523000102000F04FFF40F23711112000F04AFF1C
:10524000142005F013FC4FF4DC71122000F042FF33
:10525000142005F00BFC4FF47061132000F03AFFAE
:1052600080212A2000F036FF4821292000F032FF5B
:10527000142005F0FBFB3146012000F02BFF4946CE
:10528000022000F027FF41F23801032000F022FF46
:105290002946082000F01EFF00210A2000F01AFF16
:1052A00000210C2000F016FF00210D2000F012FF5D
:1052B00030210E2000F00EFF0021502000F00AFFE8
:1052C000EF21512000F006FF0021522000F002FFE4
:1052D00040F23F11532000F0FDFE2146602000F017
:1052E000F9FE0121612000F0F5FE00216A2000F0A6
:1052F000F1FE1121902000F0EDFE4FF4C0619220EC
:1053000000F0E8FE40F20241932000F0E3FE0221AB
:10531000942000F0DFFE142005F0A8FB01210720F7
:1053200000F0D8FE142005F0A1FB6121072000F059
:10533000D1FE40F27311072000F0CCFE00212020A6
:1053400000F0C8FE0021212000F0C4FE2221002030
:105350007DE10021084600F0BDFE0021084600F076
:10536000B9FE142005F082FB0021084600F0B2FED1
:105370000021084600F0AEFE0021084600F0AAFE1B
:105380000021084600F0A6FE0121A42000F0A2FEA4
:10539000142005F06BFB4FF41C51602000F09AFEC6
:1053A00040F60601082000F095FE40F2037319460E
:1053B000302000F08FFE0121312000F08BFE04210F
:1053C000322000F087FE4FF48171332000F082FE1E
:1053D0005C465946342000F07DFE40F20311352032
:1053E00000F078FE1F21362000F074FE19463720A9
:1053F00000F070FE0121382000F06CFE04213920FD
:1054000000F068FE1521902000F064FE4FF48261E8
:10541000102000F05FFE40F24721112000F05AFEFC
:105420004FF4DE71122000F055FE4FF4606113203E
:1054300000F050FE782005F019FB3146012000F005
:1054400049FE4FF40071022000F044FE41F23001A9
:10545000032000F03FFE08210A2000F03BFE00215F
:105460000C2000F037FE20210E2000F033FE00213A
:105470000F2000F02FFE0021202000F02BFE002145
:10548000212000F027FE3D212A2000F023FE1420D9
:1054900005F0ECFA2D21292000F01CFE00215020FF
:1054A00000F018FE4DF2EF01512000F013FE002134
:1054B000522000F00FFE40F23F11532000F00AFE90
:1054C0000021612000F006FE00216A2000F002FEAB
:1054D0002146922000F0FEFD0521932000F0FAFD08
:1054E0003146FFF7ADBB0121002000F0F3FD0A209B
:1054F00005F0BCFA41F22861102000F0EBFD0E210E
:10550000122000F0E7FD40F63921132000F0E2FD03
:105510000A2005F0ABFA4021112000F0DBFD5021FC
:10552000152000F0D7FD0A2005F0A0FA1E21122058
:1055300000F0D0FD0A2005F099FA4FF4B151102087
:1055400000F0C8FD42F63921132000F0C3FD0A2007
:1055500005F08CFA3146012000F0BCFD59460220CE
:1055600000F0B8FD41F23801032000F0B3FD5146D0
:10557000082000F0AFFD08210A2000F0ABFD00215B
:10558000302000F0A7FD40F20241312000F0A2FDE2
:105590004FF48371322000F09DFD40F2035133201F
:1055A00000F098FD4FF48271342000F093FD40F23A
:1055B0000131352000F08EFD3946362000F08AFD9D
:1055C00040F20531372000F085FD4FF4027138209C
:1055D00000F080FD40F60B71392000F07BFD0221C8
:1055E000412000F077FD4FF41C51602000E0D4E032
:1055F00000F070FD0121612000F06CFD4FF404719A
:10560000902000F067FD4FF48571922000F062FD5C
:105610000421932000F05EFD3146A02000F05AFDE9
:105620000121072000F056FD2121072000F052FD46
:105630002321072000F04EFD3321072000F04AFD12
:1056400040F23311072000F045FD0021A02000F0BA
:1056500041FD21E13021152000F03CFD10219A2070
:1056600000F038FD2021112000F034FD43F22841E4
:10567000102000F02FFD0221122000F02BFD41F23E
:105680003801132000F026FD282005F0EFF9122143
:10569000084600F01FFD282005F0E8F943F22041FC
:1056A000102000F017FD43F23801132000F012FD26
:1056B000462005F0DBF90021302000F00BFD40F220
:1056C0000241312000F006FD40F20731322000F0A7
:1056D00001FD4FF44171332000F0FCFC0421342023
:1056E00000F0F8FC40F20141352000F0F3FC3946AF
:1056F000362000F0EFFC40F20531372000F0EAFCE4
:105700004FF4C2631946382000F0E4FC19463920F2
:1057100000F0E0FC3146012000F0DCFC594602209C
:1057200000F0D8FC41F23001032000F0D3FC40F639
:105730000801082000F0CEFC08210A2000F0CAFC75
:105740004FF41C51602000F0C5FC0121612000F0E5
:10575000C1FC4FF49F71902000F0BCFC31469220B8
:1057600000F0B8FC3146932000F0B4FC4FF44051F7
:10577000A02000F0AFFC1021A32000F0ABFC012121
:10578000072000F0A7FC2121072000F0A3FC232123
:10579000072000F09FFC3321072000F09BFC40F223
:1057A00033119EE6E22020801D20288002202880E0
:1057B00004202880642005F073F9E0202080012077
:1057C00028800A2005F052F9E0202080032028805C
:1057D0000C2005F04BF9012020800A2005F046F945
:1057E000E62020802F202880FF2028802880B020DD
:1057F000208020202880002028800320288040F25C
:105800001F3028800120288040F2DF1028800020EF
:105810002880B42020800420288040F21F40288067
:10582000002028802E2028800020288028802880A2
:105830002880B6202080022028804FF40370288022
:10584000002028801720288015202880002028800C
:105850002880F02020800320288029202080D0204C
:10586000208000202880BE20208005202880FE2067
:105870002880012028800020288028802880B820C7
:1058800020800320288001202880BA202080012049
:105890002880642000F0B2F80020FCF7E1FE054902
:1058A0000120C1F880014046FCF778FE1FB0BDE83A
:1058B000F08F0000008021420346012000E05843A1
:1058C000491EC9B2FBD27047034808B50088ADF83D
:1058D0000000BDF8000008BD0008006C2DE9F04193
:1058E0003E4E002425463288824202D972888A427E
:1058F00002D80020BDE8F08100F072F9B08849F2CA
:105900004138374B41F6631745F2103145F21052DA
:10591000404508D0A0F5D04CBCF1040C03D088421F
:1059200001D0B84202D14FF02E0C06E0904202D1D5
:105930004FF4385C01E04FF0220CA3F800C0A0F552
:105940001343203B03D10220401EC0B2FCD2FFF71C
:10595000BBFFB388BB42CDD00220401EC0B2FCD2F8
:10596000FFF7B2FF0746B088404503D0884201D018
:1059700090420BD10220401EC0B2FCD2FFF7A4FF20
:105980000546F8B24FF6FF7303EA0024B088A0F58D
:105990001343253B1AD0A0F58A43353B16D01B1D77
:1059A00014D0A0F53543053B10D0B3F580530DD08E
:1059B000404503D0884201D0904209D1F80AC00284
:1059C000A10A40EA411040EAD52093E7384691E722
:1059D0003846BDE8F041FCF7D7BD0000C402002006
:1059E000FE07006C044910B50880052005F058F842
:1059F000BDE81040FFF768BFFE07006C0C4A10B509
:105A0000BE211180941C052121800BF000F84FF07D
:105A10006632084B0BF04AF80AF0CCFF20800120D8
:105A20002080FF20208000202080208010BD0000EA
:105A3000FE07006C66660440F0B5674E00233146F1
:105A4000B279898846F6040741F66314012A01D029
:105A50002AB11DE0B9421BD0A14202D118E0A142F7
:105A600016D1082814D2DFE800F00406080A0C0E4C
:105A7000101206200CE007200AE0042008E00520B0
:105A800006E0012004E0002002E0032000E0022004
:105A9000A1F5134C45F2103245F21055BCF1410C02
:105AA00007D0B94205D0914203D0A94201D0A1420A
:105AB00075D1082812D2DFE800F0110406080A0C9C
:105AC0000E1080230AE0402308E0C02306E02023D4
:105AD00004E0602302E0A02300E0E023A94202D119
